S01B000054696D6572305F54656D706F72697A61646F722E7372656379
S113000071C0000081C000007FC000007DC00000FE
S11300107BC0000079C0000077C0000075C00000FC
S113002073C0000071C000006FC000006DC000000C
S11300306BC0000069C0000067C0000065C000001C
S113004063C0000061C000005FC000005DC000002C
S11300505BC0000059C0000057C0000066C000002B
S113006053C0000051C000004FC000004DC000004C
S11300704BC0000049C0000047C0000045C000005C
S113008043C0000041C000003FC000003DC000006C
S11300903BC0000039C0000037C0000035C000007C
S11300A033C0000031C000002FC000002DC000008C
S11300B02BC0000029C0000027C0000025C000009C
S11300C023C0000021C000001FC000001DC00000AC
S11300D01BC0000019C0000017C0000015C00000BC
S11300E013C0000011241FBECFEFD1E2DEBFCDBF8D
S11300F000E00CBF22E0A0E0B2E001C01D92A230FB
S1130100B207E1F702D036C07BCF8FEF87B918B8BA
S113011014BC84E085BD82EC86BDA89AEEE6F0E0CE
S11301208081816080837894FFCF1F920F920FB6F5
S11301300F9211248F9382EC86BD809101028F5F10
S11301408A3F19F0809301020FC01092010280913E
S113015000028F5F803118F48093000202C0109275
S113016000028091000288B98F910F900FBE0F900A
S10B01701F901895F894FFCFCD
S9030000FC
